{
  "contractName": "SupplyChain",
  "abi": [
    {
      "anonymous": false,
      "inputs": [
        {
          "indexed": false,
          "internalType": "uint256",
          "name": "parcelId",
          "type": "uint256"
        },
        {
          "indexed": false,
          "internalType": "uint256",
          "name": "checkpoint",
          "type": "uint256"
        },
        {
          "indexed": false,
          "internalType": "uint256",
          "name": "blockNumber",
          "type": "uint256"
        }
      ],
      "name": "CheckpointCompleted",
      "type": "event"
    },
    {
      "anonymous": false,
      "inputs": [
        {
          "indexed": false,
          "internalType": "uint256",
          "name": "parcelId",
          "type": "uint256"
        }
      ],
      "name": "ParcelLost",
      "type": "event"
    },
    {
      "anonymous": false,
      "inputs": [
        {
          "indexed": false,
          "internalType": "uint256",
          "name": "parcelId",
          "type": "uint256"
        },
        {
          "indexed": false,
          "internalType": "string",
          "name": "name",
          "type": "string"
        },
        {
          "indexed": false,
          "internalType": "address",
          "name": "owner",
          "type": "address"
        }
      ],
      "name": "ParcelRegistered",
      "type": "event"
    },
    {
      "anonymous": false,
      "inputs": [
        {
          "indexed": false,
          "internalType": "uint256",
          "name": "parcelId",
          "type": "uint256"
        },
        {
          "indexed": false,
          "internalType": "address",
          "name": "from",
          "type": "address"
        },
        {
          "indexed": false,
          "internalType": "address",
          "name": "to",
          "type": "address"
        },
        {
          "indexed": false,
          "internalType": "uint256",
          "name": "checkpoint",
          "type": "uint256"
        }
      ],
      "name": "ParcelTransferred",
      "type": "event"
    },
    {
      "inputs": [],
      "name": "nextParcelId",
      "outputs": [
        {
          "internalType": "uint256",
          "name": "",
          "type": "uint256"
        }
      ],
      "stateMutability": "view",
      "type": "function",
      "constant": true
    },
    {
      "inputs": [
        {
          "internalType": "uint256",
          "name": "",
          "type": "uint256"
        }
      ],
      "name": "parcels",
      "outputs": [
        {
          "internalType": "uint256",
          "name": "id",
          "type": "uint256"
        },
        {
          "internalType": "string",
          "name": "name",
          "type": "string"
        },
        {
          "internalType": "string",
          "name": "description",
          "type": "string"
        },
        {
          "internalType": "string",
          "name": "location",
          "type": "string"
        },
        {
          "internalType": "string",
          "name": "service",
          "type": "string"
        },
        {
          "internalType": "address",
          "name": "currentOwner",
          "type": "address"
        },
        {
          "internalType": "bool",
          "name": "isLost",
          "type": "bool"
        },
        {
          "internalType": "uint256",
          "name": "checkpointCount",
          "type": "uint256"
        },
        {
          "internalType": "uint256",
          "name": "code",
          "type": "uint256"
        },
        {
          "internalType": "uint256",
          "name": "latestCheckpoint",
          "type": "uint256"
        }
      ],
      "stateMutability": "view",
      "type": "function",
      "constant": true
    },
    {
      "inputs": [
        {
          "internalType": "string",
          "name": "name",
          "type": "string"
        },
        {
          "internalType": "string",
          "name": "description",
          "type": "string"
        },
        {
          "internalType": "string",
          "name": "location",
          "type": "string"
        },
        {
          "internalType": "string",
          "name": "service",
          "type": "string"
        },
        {
          "internalType": "uint256",
          "name": "numCheckpoints",
          "type": "uint256"
        },
        {
          "internalType": "string[]",
          "name": "locations",
          "type": "string[]"
        }
      ],
      "name": "registerParcel",
      "outputs": [],
      "stateMutability": "nonpayable",
      "type": "function"
    },
    {
      "inputs": [
        {
          "internalType": "uint256",
          "name": "parcelId",
          "type": "uint256"
        },
        {
          "internalType": "uint256",
          "name": "checkpoint",
          "type": "uint256"
        }
      ],
      "name": "transferParcel",
      "outputs": [],
      "stateMutability": "nonpayable",
      "type": "function"
    },
    {
      "inputs": [
        {
          "internalType": "uint256",
          "name": "parcelId",
          "type": "uint256"
        }
      ],
      "name": "reportParcelLost",
      "outputs": [],
      "stateMutability": "nonpayable",
      "type": "function"
    },
    {
      "inputs": [
        {
          "internalType": "uint256",
          "name": "parcelId",
          "type": "uint256"
        }
      ],
      "name": "getParcelHistory",
      "outputs": [
        {
          "internalType": "address[]",
          "name": "",
          "type": "address[]"
        }
      ],
      "stateMutability": "view",
      "type": "function",
      "constant": true
    },
    {
      "inputs": [
        {
          "internalType": "uint256",
          "name": "parcelId",
          "type": "uint256"
        }
      ],
      "name": "getParcelDetails",
      "outputs": [
        {
          "internalType": "uint256",
          "name": "id",
          "type": "uint256"
        },
        {
          "internalType": "uint256",
          "name": "latestCheckpoint",
          "type": "uint256"
        },
        {
          "internalType": "string",
          "name": "name",
          "type": "string"
        },
        {
          "internalType": "string",
          "name": "description",
          "type": "string"
        },
        {
          "internalType": "string",
          "name": "location",
          "type": "string"
        },
        {
          "internalType": "string",
          "name": "service",
          "type": "string"
        },
        {
          "internalType": "uint256",
          "name": "checkpointCount",
          "type": "uint256"
        },
        {
          "internalType": "string[]",
          "name": "allLocations",
          "type": "string[]"
        },
        {
          "internalType": "bool",
          "name": "isLost",
          "type": "bool"
        }
      ],
      "stateMutability": "view",
      "type": "function",
      "constant": true
    },
    {
      "inputs": [
        {
          "internalType": "uint256",
          "name": "parcelId",
          "type": "uint256"
        }
      ],
      "name": "getNextLocation",
      "outputs": [
        {
          "internalType": "string",
          "name": "",
          "type": "string"
        }
      ],
      "stateMutability": "view",
      "type": "function",
      "constant": true
    },
    {
      "inputs": [],
      "name": "getParcelCount",
      "outputs": [
        {
          "internalType": "uint256",
          "name": "",
          "type": "uint256"
        }
      ],
      "stateMutability": "view",
      "type": "function",
      "constant": true
    },
    {
      "inputs": [],
      "name": "getCode",
      "outputs": [
        {
          "internalType": "uint256",
          "name": "",
          "type": "uint256"
        }
      ],
      "stateMutability": "view",
      "type": "function",
      "constant": true
    }
  ],
  "bytecode": "0x608060405234801561001057600080fd5b506121bd806100206000396000f3fe608060405234801561001057600080fd5b506004361061009e5760003560e01c8063ac4344cf11610066578063ac4344cf14610164578063c5d3823714610180578063d66715d6146101b0578063e10c3254146101e8578063ea879634146102045761009e565b806339108982146100a357806352a7494d146100d3578063950c71d8146100f1578063a0fa8ede1461010f578063a72eca0914610148575b600080fd5b6100bd60048036038101906100b89190611120565b610222565b6040516100ca919061123d565b60405180910390f35b6100db6102c5565b6040516100e8919061126e565b60405180910390f35b6100f96102cf565b604051610106919061126e565b60405180910390f35b61012960048036038101906101249190611120565b6102d5565b60405161013f9a99989796959493929190611343565b60405180910390f35b610162600480360381019061015d9190611616565b610576565b005b61017e6004803603810190610179919061172f565b6107b6565b005b61019a60048036038101906101959190611120565b61099f565b6040516101a7919061176f565b60405180910390f35b6101ca60048036038101906101c59190611120565b610ac4565b6040516101df9998979695949392919061189d565b60405180910390f35b61020260048036038101906101fd9190611120565b610ed2565b005b61020c610fd2565b604051610219919061126e565b60405180910390f35b60606000808381526020019081526020016000206006018054806020026020016040519081016040528092919081815260200182805480156102b957602002820191906000526020600020905b8160009054906101000a900473ffffffffffffffffffffffffffffffffffffffff1673ffffffffffffffffffffffffffffffffffffffff168152602001906001019080831161026f575b50505050509050919050565b6000600154905090565b60015481565b60006020528060005260406000206000915090508060000154908060010180546102fe9061197c565b80601f016020809104026020016040519081016040528092919081815260200182805461032a9061197c565b80156103775780601f1061034c57610100808354040283529160200191610377565b820191906000526020600020905b81548152906001019060200180831161035a57829003601f168201915b50505050509080600201805461038c9061197c565b80601f01602080910402602001604051908101604052809291908181526020018280546103b89061197c565b80156104055780601f106103da57610100808354040283529160200191610405565b820191906000526020600020905b8154815290600101906020018083116103e857829003601f168201915b50505050509080600301805461041a9061197c565b80601f01602080910402602001604051908101604052809291908181526020018280546104469061197c565b80156104935780601f1061046857610100808354040283529160200191610493565b820191906000526020600020905b81548152906001019060200180831161047657829003601f168201915b5050505050908060040180546104a89061197c565b80601f01602080910402602001604051908101604052809291908181526020018280546104d49061197c565b80156105215780601f106104f657610100808354040283529160200191610521565b820191906000526020600020905b81548152906001019060200180831161050457829003601f168201915b5050505050908060050160009054906101000a900473ffffffffffffffffffffffffffffffffffffffff16908060070160009054906101000a900460ff169080600801549080600a01549080600b015490508a565b818151146105b9576040517f08c379a00000000000000000000000000000000000000000000000000000000081526004016105b090611a1f565b60405180910390fd5b6000806000600154815260200190815260200160002090506001548160000181905550868160010190816105ed9190611beb565b50858160020190816105ff9190611beb565b50848160030190816106119190611beb565b50838160040190816106239190611beb565b50338160050160006101000a81548173ffffffffffffffffffffffffffffffffffffffff021916908373ffffffffffffffffffffffffffffffffffffffff16021790555080600601339080600181540180825580915050600190039060005260206000200160009091909190916101000a81548173ffffffffffffffffffffffffffffffffffffffff021916908373ffffffffffffffffffffffffffffffffffffffff16021790555060008160070160006101000a81548160ff0219169083151502179055508281600801819055508181600901908051906020019061070a929190610ffc565b5061271042443360405160200161072393929190611d26565b6040516020818303038152906040528051906020012060001c6107469190611d92565b81600a0181905550600081600b01819055507fe1f789bdc940834eb233dd246835f12cc939d8dc0149a8591045425c026e19a8600154883360405161078d93929190611dc3565b60405180910390a1600160008154809291906107a890611e30565b919050555050505050505050565b600080600084815260200190815260200160002090508060070160009054906101000a900460ff161561081e576040517f08c379a000000000000000000000000000000000000000000000000000000000815260040161081590611ec4565b60405180910390fd5b600082118015610832575080600801548211155b610871576040517f08c379a000000000000000000000000000000000000000000000000000000000815260040161086890611f30565b60405180910390fd5b8181600b018190555080600601339080600181540180825580915050600190039060005260206000200160009091909190916101000a81548173ffffffffffffffffffffffffffffffffffffffff021916908373ffffffffffffffffffffffffffffffffffffffff160217905550338160050160006101000a81548173ffffffffffffffffffffffffffffffffffffffff021916908373ffffffffffffffffffffffffffffffffffffffff1602179055507f3b9f11f11a6ed3d40670eb3c2f49e38cafc9a96d8ba3ff8dd2cf1044cded548583834360405161095593929190611f50565b60405180910390a17fb7bc84a8dff11bcd1bbcbd04c2d9723be3328d320c0f09d9b30a6d5b0688274c833333856040516109929493929190611f87565b60405180910390a1505050565b6060600080600084815260200190815260200160002090506000600182600b01546109ca9190611fcc565b905081600801548110610a12576040517f08c379a0000000000000000000000000000000000000000000000000000000008152600401610a0990611f30565b60405180910390fd5b816009018181548110610a2857610a27612000565b5b906000526020600020018054610a3d9061197c565b80601f0160208091040260200160405190810160405280929190818152602001828054610a699061197c565b8015610ab65780601f10610a8b57610100808354040283529160200191610ab6565b820191906000526020600020905b815481529060010190602001808311610a9957829003601f168201915b505050505092505050919050565b600080606080606080600060606000806000808c815260200190815260200160002090508060050160009054906101000a900473ffffffffffffffffffffffffffffffffffffffff1673ffffffffffffffffffffffffffffffffffffffff163373ffffffffffffffffffffffffffffffffffffffff1614610b7a576040517f08c379a0000000000000000000000000000000000000000000000000000000008152600401610b71906120a1565b60405180910390fd5b806000015481600b0154826001018360020184600301856004018660080154876009018860070160009054906101000a900460ff16868054610bbb9061197c565b80601f0160208091040260200160405190810160405280929190818152602001828054610be79061197c565b8015610c345780601f10610c0957610100808354040283529160200191610c34565b820191906000526020600020905b815481529060010190602001808311610c1757829003601f168201915b50505050509650858054610c479061197c565b80601f0160208091040260200160405190810160405280929190818152602001828054610c739061197c565b8015610cc05780601f10610c9557610100808354040283529160200191610cc0565b820191906000526020600020905b815481529060010190602001808311610ca357829003601f168201915b50505050509550848054610cd39061197c565b80601f0160208091040260200160405190810160405280929190818152602001828054610cff9061197c565b8015610d4c5780601f10610d2157610100808354040283529160200191610d4c565b820191906000526020600020905b815481529060010190602001808311610d2f57829003601f168201915b50505050509450838054610d5f9061197c565b80601f0160208091040260200160405190810160405280929190818152602001828054610d8b9061197c565b8015610dd85780601f10610dad57610100808354040283529160200191610dd8565b820191906000526020600020905b815481529060010190602001808311610dbb57829003601f168201915b5050505050935081805480602002602001604051908101604052809291908181526020016000905b82821015610eac578382906000526020600020018054610e1f9061197c565b80601f0160208091040260200160405190810160405280929190818152602001828054610e4b9061197c565b8015610e985780601f10610e6d57610100808354040283529160200191610e98565b820191906000526020600020905b815481529060010190602001808311610e7b57829003601f168201915b505050505081526020019060010190610e00565b505050509150995099509950995099509950995099509950509193959799909294969850565b600080600083815260200190815260200160002090508060050160009054906101000a900473ffffffffffffffffffffffffffffffffffffffff1673ffffffffffffffffffffffffffffffffffffffff163373ffffffffffffffffffffffffffffffffffffffff1614610f7a576040517f08c379a0000000000000000000000000000000000000000000000000000000008152600401610f7190612133565b60405180910390fd5b60018160070160006101000a81548160ff0219169083151502179055507f6196b5a3e49e3b84c16fbc89f00fb1f25fdf80b1cf2f5e7a7b36e10136b85dac82604051610fc6919061126e565b60405180910390a15050565b600080600060018054610fe59190612153565b8152602001908152602001600020600a0154905090565b828054828255906000526020600020908101928215611044579160200282015b828111156110435782518290816110339190611beb565b509160200191906001019061101c565b5b5090506110519190611055565b5090565b5b80821115611075576000818161106c9190611079565b50600101611056565b5090565b5080546110859061197c565b6000825580601f1061109757506110b6565b601f0160209004906000526020600020908101906110b591906110b9565b5b50565b5b808211156110d25760008160009055506001016110ba565b5090565b6000604051905090565b600080fd5b600080fd5b6000819050919050565b6110fd816110ea565b811461110857600080fd5b50565b60008135905061111a816110f4565b92915050565b600060208284031215611136576111356110e0565b5b60006111448482850161110b565b91505092915050565b600081519050919050565b600082825260208201905092915050565b6000819050602082019050919050565b600073ffffffffffffffffffffffffffffffffffffffff82169050919050565b60006111a482611179565b9050919050565b6111b481611199565b82525050565b60006111c683836111ab565b60208301905092915050565b6000602082019050919050565b60006111ea8261114d565b6111f48185611158565b93506111ff83611169565b8060005b8381101561123057815161121788826111ba565b9750611222836111d2565b925050600181019050611203565b5085935050505092915050565b6000602082019050818103600083015261125781846111df565b905092915050565b611268816110ea565b82525050565b6000602082019050611283600083018461125f565b92915050565b600081519050919050565b600082825260208201905092915050565b60005b838110156112c35780820151818401526020810190506112a8565b60008484015250505050565b6000601f19601f8301169050919050565b60006112eb82611289565b6112f58185611294565b93506113058185602086016112a5565b61130e816112cf565b840191505092915050565b61132281611199565b82525050565b60008115159050919050565b61133d81611328565b82525050565b600061014082019050611359600083018d61125f565b818103602083015261136b818c6112e0565b9050818103604083015261137f818b6112e0565b90508181036060830152611393818a6112e0565b905081810360808301526113a781896112e0565b90506113b660a0830188611319565b6113c360c0830187611334565b6113d060e083018661125f565b6113de61010083018561125f565b6113ec61012083018461125f565b9b9a5050505050505050505050565b600080fd5b600080fd5b7f4e487b7100000000000000000000000000000000000000000000000000000000600052604160045260246000fd5b61143d826112cf565b810181811067ffffffffffffffff8211171561145c5761145b611405565b5b80604052505050565b600061146f6110d6565b905061147b8282611434565b919050565b600067ffffffffffffffff82111561149b5761149a611405565b5b6114a4826112cf565b9050602081019050919050565b82818337600083830152505050565b60006114d36114ce84611480565b611465565b9050828152602081018484840111156114ef576114ee611400565b5b6114fa8482856114b1565b509392505050565b600082601f830112611517576115166113fb565b5b81356115278482602086016114c0565b91505092915050565b600067ffffffffffffffff82111561154b5761154a611405565b5b602082029050602081019050919050565b600080fd5b600061157461156f84611530565b611465565b905080838252602082019050602084028301858111156115975761159661155c565b5b835b818110156115de57803567ffffffffffffffff8111156115bc576115bb6113fb565b5b8086016115c98982611502565b85526020850194505050602081019050611599565b5050509392505050565b600082601f8301126115fd576115fc6113fb565b5b813561160d848260208601611561565b91505092915050565b60008060008060008060c08789031215611633576116326110e0565b5b600087013567ffffffffffffffff811115611651576116506110e5565b5b61165d89828a01611502565b965050602087013567ffffffffffffffff81111561167e5761167d6110e5565b5b61168a89828a01611502565b955050604087013567ffffffffffffffff8111156116ab576116aa6110e5565b5b6116b789828a01611502565b945050606087013567ffffffffffffffff8111156116d8576116d76110e5565b5b6116e489828a01611502565b93505060806116f589828a0161110b565b92505060a087013567ffffffffffffffff811115611716576117156110e5565b5b61172289828a016115e8565b9150509295509295509295565b60008060408385031215611746576117456110e0565b5b60006117548582860161110b565b92505060206117658582860161110b565b9150509250929050565b6000602082019050818103600083015261178981846112e0565b905092915050565b600081519050919050565b600082825260208201905092915050565b6000819050602082019050919050565b600082825260208201905092915050565b60006117d982611289565b6117e381856117bd565b93506117f38185602086016112a5565b6117fc816112cf565b840191505092915050565b600061181383836117ce565b905092915050565b6000602082019050919050565b600061183382611791565b61183d818561179c565b93508360208202850161184f856117ad565b8060005b8581101561188b578484038952815161186c8582611807565b94506118778361181b565b925060208a01995050600181019050611853565b50829750879550505050505092915050565b6000610120820190506118b3600083018c61125f565b6118c0602083018b61125f565b81810360408301526118d2818a6112e0565b905081810360608301526118e681896112e0565b905081810360808301526118fa81886112e0565b905081810360a083015261190e81876112e0565b905061191d60c083018661125f565b81810360e083015261192f8185611828565b905061193f610100830184611334565b9a9950505050505050505050565b7f4e487b7100000000000000000000000000000000000000000000000000000000600052602260045260246000fd5b6000600282049050600182168061199457607f821691505b6020821081036119a7576119a661194d565b5b50919050565b7f4c6f636174696f6e73206c656e677468206d757374206d61746368206e756d6260008201527f6572206f6620636865636b706f696e7473000000000000000000000000000000602082015250565b6000611a09603183611294565b9150611a14826119ad565b604082019050919050565b60006020820190508181036000830152611a38816119fc565b9050919050565b60008190508160005260206000209050919050565b60006020601f8301049050919050565b600082821b905092915050565b600060088302611aa17fffffffffffffffffffffffffffffffffffffffffffffffffffffffffffffffff82611a64565b611aab8683611a64565b95508019841693508086168417925050509392505050565b6000819050919050565b6000611ae8611ae3611ade846110ea565b611ac3565b6110ea565b9050919050565b6000819050919050565b611b0283611acd565b611b16611b0e82611aef565b848454611a71565b825550505050565b600090565b611b2b611b1e565b611b36818484611af9565b505050565b5b81811015611b5a57611b4f600082611b23565b600181019050611b3c565b5050565b601f821115611b9f57611b7081611a3f565b611b7984611a54565b81016020851015611b88578190505b611b9c611b9485611a54565b830182611b3b565b50505b505050565b600082821c905092915050565b6000611bc260001984600802611ba4565b1980831691505092915050565b6000611bdb8383611bb1565b9150826002028217905092915050565b611bf482611289565b67ffffffffffffffff811115611c0d57611c0c611405565b5b611c17825461197c565b611c22828285611b5e565b600060209050601f831160018114611c555760008415611c43578287015190505b611c4d8582611bcf565b865550611cb5565b601f198416611c6386611a3f565b60005b82811015611c8b57848901518255600182019150602085019450602081019050611c66565b86831015611ca85784890151611ca4601f891682611bb1565b8355505b6001600288020188555050505b505050505050565b6000819050919050565b611cd8611cd3826110ea565b611cbd565b82525050565b60008160601b9050919050565b6000611cf682611cde565b9050919050565b6000611d0882611ceb565b9050919050565b611d20611d1b82611199565b611cfd565b82525050565b6000611d328286611cc7565b602082019150611d428285611cc7565b602082019150611d528284611d0f565b601482019150819050949350505050565b7f4e487b7100000000000000000000000000000000000000000000000000000000600052601260045260246000fd5b6000611d9d826110ea565b9150611da8836110ea565b925082611db857611db7611d63565b5b828206905092915050565b6000606082019050611dd8600083018661125f565b8181036020830152611dea81856112e0565b9050611df96040830184611319565b949350505050565b7f4e487b7100000000000000000000000000000000000000000000000000000000600052601160045260246000fd5b6000611e3b826110ea565b91507fffffffffffffffffffffffffffffffffffffffffffffffffffffffffffffffff8203611e6d57611e6c611e01565b5b600182019050919050565b7f43616e6e6f74207472616e736665722061206c6f73742070617263656c000000600082015250565b6000611eae601d83611294565b9150611eb982611e78565b602082019050919050565b60006020820190508181036000830152611edd81611ea1565b9050919050565b7f496e76616c696420636865636b706f696e740000000000000000000000000000600082015250565b6000611f1a601283611294565b9150611f2582611ee4565b602082019050919050565b60006020820190508181036000830152611f4981611f0d565b9050919050565b6000606082019050611f65600083018661125f565b611f72602083018561125f565b611f7f604083018461125f565b949350505050565b6000608082019050611f9c600083018761125f565b611fa96020830186611319565b611fb66040830185611319565b611fc3606083018461125f565b95945050505050565b6000611fd7826110ea565b9150611fe2836110ea565b9250828201905080821115611ffa57611ff9611e01565b5b92915050565b7f4e487b7100000000000000000000000000000000000000000000000000000000600052603260045260246000fd5b7f4f6e6c79207468652063757272656e74206f776e65722063616e20766965772060008201527f7468652070617263656c2064657461696c730000000000000000000000000000602082015250565b600061208b603283611294565b91506120968261202f565b604082019050919050565b600060208201905081810360008301526120ba8161207e565b9050919050565b7f4f6e6c792063757272656e74206f776e65722063616e207265706f727420706160008201527f7263656c206c6f73740000000000000000000000000000000000000000000000602082015250565b600061211d602983611294565b9150612128826120c1565b604082019050919050565b6000602082019050818103600083015261214c81612110565b9050919050565b600061215e826110ea565b9150612169836110ea565b925082820390508181111561218157612180611e01565b5b9291505056fea26469706673582212209d050a781081305b32da7450a3d9aaa62e738e56a849ad0fd38f36b3b446b3cc64736f6c63430008130033",
  "immutableReferences": {},
  "source": "// SPDX-License-Identifier: MIT\r\npragma solidity ^0.8.19;\r\n\r\ncontract SupplyChain {\r\n    struct Parcel {\r\n        uint256 id;\r\n        string name;\r\n        string description;\r\n        string location;\r\n        string service;\r\n        address currentOwner;\r\n        address[] trackingHistory;\r\n        bool isLost;\r\n        uint256 checkpointCount;\r\n        string[] allLocations;\r\n        uint code;\r\n        uint256 latestCheckpoint; // Added latestCheckpoint property\r\n    }\r\n\r\n    mapping(uint256 => Parcel) public parcels;\r\n    uint256 public nextParcelId;\r\n\r\n    event ParcelRegistered(uint256 parcelId, string name, address owner);\r\n    event CheckpointCompleted(uint256 parcelId, uint256 checkpoint, uint256 blockNumber);\r\n    event ParcelTransferred(uint256 parcelId, address from, address to, uint256 checkpoint);\r\n    event ParcelLost(uint256 parcelId);\r\n\r\n    function registerParcel(\r\n        string memory name,\r\n        string memory description,\r\n        string memory location,\r\n        string memory service,\r\n        uint256 numCheckpoints,\r\n        string[] memory locations\r\n    ) public {\r\n        require(locations.length == numCheckpoints, \"Locations length must match number of checkpoints\");\r\n\r\n        Parcel storage newParcel = parcels[nextParcelId];\r\n        newParcel.id = nextParcelId;\r\n        newParcel.name = name;\r\n        newParcel.description = description;\r\n        newParcel.location = location;\r\n        newParcel.service = service;\r\n        newParcel.currentOwner = msg.sender;\r\n        newParcel.trackingHistory.push(msg.sender);\r\n        newParcel.isLost = false;\r\n        newParcel.checkpointCount = numCheckpoints;\r\n        newParcel.allLocations = locations;\r\n        newParcel.code = uint(keccak256(abi.encodePacked(block.timestamp, block.prevrandao, msg.sender))) % 10000; // Generates a random number between 0 and 9999\r\n        newParcel.latestCheckpoint = 0; // Initialize latestCheckpoint\r\n\r\n        emit ParcelRegistered(nextParcelId, name, msg.sender);\r\n        nextParcelId++;\r\n    }\r\n\r\n    function transferParcel(\r\n        uint256 parcelId,\r\n        uint256 checkpoint\r\n        // uint256 code\r\n    ) public {\r\n        Parcel storage parcel = parcels[parcelId];\r\n        require(!parcel.isLost, \"Cannot transfer a lost parcel\");\r\n        require(checkpoint > 0 && checkpoint <= parcel.checkpointCount, \"Invalid checkpoint\");\r\n        // require(parcel.code == code, \"Invalid code\");\r\n\r\n        // Update checkpoint\r\n        parcel.latestCheckpoint = checkpoint; // Update latestCheckpoint\r\n        parcel.trackingHistory.push(msg.sender);\r\n        parcel.currentOwner = msg.sender;\r\n\r\n        // Emit checkpoint completion event with block number and code\r\n        emit CheckpointCompleted(parcelId, checkpoint, block.number);\r\n        emit ParcelTransferred(parcelId, msg.sender, msg.sender, checkpoint);\r\n    }\r\n\r\n    function reportParcelLost(uint256 parcelId) public {\r\n        Parcel storage parcel = parcels[parcelId];\r\n        require(msg.sender == parcel.currentOwner, \"Only current owner can report parcel lost\");\r\n\r\n        parcel.isLost = true;\r\n\r\n        emit ParcelLost(parcelId);\r\n    }\r\n\r\n    function getParcelHistory(uint256 parcelId) public view returns (address[] memory) {\r\n        return parcels[parcelId].trackingHistory;\r\n    }\r\n\r\n    function getParcelDetails(uint256 parcelId) public view returns (\r\n        uint256 id,\r\n        uint256 latestCheckpoint,\r\n        string memory name,\r\n        string memory description,\r\n        string memory location,\r\n        string memory service,\r\n        uint256 checkpointCount,\r\n        string[] memory allLocations,\r\n        bool isLost\r\n\r\n\r\n    ) {\r\n        Parcel storage parcel = parcels[parcelId];\r\n        require(msg.sender == parcel.currentOwner, \"Only the current owner can view the parcel details\");\r\n\r\n        return (\r\n            parcel.id,\r\n            parcel.latestCheckpoint,\r\n            parcel.name,\r\n            parcel.description,\r\n            parcel.location,\r\n            parcel.service, \r\n            parcel.checkpointCount,\r\n            parcel.allLocations,\r\n            parcel.isLost\r\n        );\r\n    }\r\n\r\n    function getNextLocation(uint256 parcelId) public view returns (string memory) {\r\n        Parcel storage parcel = parcels[parcelId];\r\n        uint256 nextCheckpoint = parcel.latestCheckpoint + 1;\r\n        require(nextCheckpoint < parcel.checkpointCount, \"Invalid checkpoint\");\r\n        return parcel.allLocations[nextCheckpoint];\r\n    }\r\n\r\n    function getParcelCount() public view returns (uint256) {\r\n        return nextParcelId;\r\n    }\r\n\r\n    function getCode() public view returns (uint256) {\r\n        return parcels[nextParcelId - 1].code;\r\n    }\r\n}\r\n",
  "sourcePath": "E:\\PROJECTS\\Nextjs\\supply_guard _v2\\supply-chain\\contracts\\SupplyChain.sol",
  "compiler": {
    "name": "solc",
    "version": "0.8.19+commit.7dd6d404.Emscripten.clang"
  },
  "schemaVersion": "3.4.10",
  "updatedAt": "2024-09-14T17:35:50.365Z",
  "networkType": "ethereum",
  "devdoc": {
    "kind": "dev",
    "methods": {},
    "version": 1
  },
  "userdoc": {
    "kind": "user",
    "methods": {},
    "version": 1
  }
}